11:59:37.488311 IP localhost.33536 > localhost.30: Flags [none], win 1024, length 0
	0x0000:  4500 0028 7b53 0000 4006 0000 7f00 0001  E..({S..@.......
	0x0010:  7f00 0001 8300 001e 5d00 0000 0000 0000  ........].......
	0x0020:  5000 0400 abeb 0000                      P.......
11:59:37.488324 IP localhost.26880 > localhost.15: Flags [S], seq 2348810240, win 1024, options [mss 1460], length 0
	0x0000:  4500 002c 7665 0000 4006 0000 7f00 0001  E..,ve..@.......
	0x0010:  7f00 0001 6900 000f 8c00 0000 0000 0000  ....i...........
	0x0020:  6002 0400 942d 0000 0204 05b4            `....-......
11:59:37.488330 IP localhost.28160 > localhost.15: Flags [.], ack 0, win 1024, length 0
	0x0000:  4500 0028 6e4a 0000 4006 0000 7f00 0001  E..(nJ..@.......
	0x0010:  7f00 0001 6e00 000f 9900 0000 0000 0000  ....n...........
	0x0020:  5010 0400 abdb 0000                      P.......
11:59:37.488337 IP localhost.50688 > localhost.15: Flags [R.], seq 2785017856, ack 0, win 1024, length 0
	0x0000:  4500 0028 3554 0000 4006 0000 7f00 0001  E..(5T..@.......
	0x0010:  7f00 0001 c600 000f a600 0000 0000 0000  ................
	0x0020:  5014 0400 abd7 0000                      P.......
11:59:37.488343 IP localhost.35584 > localhost.15: Flags [FSR.], seq 2734686208, ack 0, win 1024, length 0
	0x0000:  4500 0028 1fc7 0000 4006 0000 7f00 0001  E..(....@.......
	0x0010:  7f00 0001 8b00 000f a300 0000 0000 0000  ................
	0x0020:  5017 0400 abd4 0000                      P.......
11:59:37.488351 IP localhost.17152 > localhost.15: Flags [FSRP.UEW], seq 2986344448, ack 0, win 1024, urg 0, length 0
	0x0000:  4500 0028 e79d 0000 4006 0000 7f00 0001  E..(....@.......
	0x0010:  7f00 0001 4300 000f b200 0000 0000 0000  ....C...........
	0x0020:  50ff 0400 aaec 0000                      P.......
11:59:37.488357 IP localhost.33536 > localhost.30: Flags [none], win 1024, length 0
	0x0000:  4500 0028 5c82 0000 4006 0000 7f00 0001  E..(\...@.......
	0x0010:  7f00 0001 8300 001e 5d00 0000 0000 0000  ........].......
	0x0020:  5000 0400 abeb 0000                      P.......
11:59:37.488364 IP localhost.30 > localhost.33536: Flags [R.], seq 0, ack 1560281088, win 0, length 0
	0x0000:  4500 0028 1dd4 0000 4006 0000 7f00 0001  E..(....@.......
	0x0010:  7f00 0001 001e 8300 0000 0000 5d00 0000  ............]...
	0x0020:  5014 0000 fe1c 0000                      P.......
11:59:37.488366 IP localhost.65280 > localhost.16: Flags [S], seq 3724541952, win 1024, options [mss 1460], length 0
	0x0000:  4500 002c 32cc 0000 4006 0000 7f00 0001  E..,2...@.......
	0x0010:  7f00 0001 ff00 0010 de00 0000 0000 0000  ................
	0x0020:  6002 0400 942d 0000 0204 05b4            `....-......
11:59:37.488378 IP localhost.40704 > localhost.16: Flags [.], ack 0, win 1024, length 0
	0x0000:  4500 0028 fe9a 0000 4006 0000 7f00 0001  E..(....@.......
	0x0010:  7f00 0001 9f00 0010 ac00 0000 0000 0000  ................
	0x0020:  5010 0400 abdb 0000                      P.......
11:59:37.488381 IP localhost.15 > localhost.26880: Flags [R.], seq 0, ack 2348810241, win 0, length 0
	0x0000:  4500 0028 932d 0000 4006 0000 7f00 0001  E..(.-..@.......
	0x0010:  7f00 0001 000f 6900 0000 0000 8c00 0001  ......i.........
	0x0020:  5014 0000 fe1c 0000                      P.......
11:59:37.488386 IP localhost.42752 > localhost.16: Flags [R.], seq 1946157056, ack 0, win 1024, length 0
	0x0000:  4500 0028 7927 0000 4006 0000 7f00 0001  E..(y'..@.......
	0x0010:  7f00 0001 a700 0010 7400 0000 0000 0000  ........t.......
	0x0020:  5014 0400 abd7 0000                      P.......
11:59:37.488394 IP localhost.isnetserv > localhost.16: Flags [FSR.], seq 1107296256, ack 0, win 1024, length 0
	0x0000:  4500 0028 c714 0000 4006 0000 7f00 0001  E..(....@.......
	0x0010:  7f00 0001 bc00 0010 4200 0000 0000 0000  ........B.......
	0x0020:  5017 0400 abd4 0000                      P.......
11:59:37.488401 IP localhost.15 > localhost.28160: Flags [R], seq 0, win 0, length 0
	0x0000:  4500 0028 1728 0000 4006 0000 7f00 0001  E..(.(..@.......
	0x0010:  7f00 0001 000f 6e00 0000 0000 0000 0000  ......n.........
	0x0020:  5004 0000 fe1c 0000                      P.......
11:59:37.488402 IP localhost.13056 > localhost.16: Flags [FSRP.UEW], seq 50331648, ack 0, win 1024, urg 0, length 0
	0x0000:  4500 0028 c131 0000 4006 0000 7f00 0001  E..(.1..@.......
	0x0010:  7f00 0001 3300 0010 0300 0000 0000 0000  ....3...........
	0x0020:  50ff 0400 aaec 0000                      P.......
11:59:37.488413 IP localhost.33536 > localhost.30: Flags [none], win 1024, length 0
	0x0000:  4500 0028 657a 0000 4006 0000 7f00 0001  E..(ez..@.......
	0x0010:  7f00 0001 8300 001e 5d00 0000 0000 0000  ........].......
	0x0020:  5000 0400 abeb 0000                      P.......
11:59:37.488415 IP localhost.30 > localhost.33536: Flags [R.], seq 0, ack 1, win 0, length 0
	0x0000:  4500 0028 9acc 0000 4006 0000 7f00 0001  E..(....@.......
	0x0010:  7f00 0001 001e 8300 0000 0000 5d00 0000  ............]...
	0x0020:  5014 0000 fe1c 0000                      P.......
11:59:37.488420 IP localhost.31488 > localhost.ftp-data: Flags [R.], seq 3070230528:3070230532, ack 0, win 1024, length 4
	0x0000:  4500 002c 390b 0000 4006 0000 7f00 0001  E..,9...@.......
	0x0010:  7f00 0001 7b00 0014 b700 0000 0000 0000  ....{...........
	0x0020:  5014 0400 abd7 0000 0000 0000            P...........
11:59:37.488428 IP localhost.16 > localhost.65280: Flags [R.], seq 0, ack 3724541953, win 0, length 0
	0x0000:  4500 0028 098e 0000 4006 0000 7f00 0001  E..(....@.......
	0x0010:  7f00 0001 0010 ff00 0000 0000 de00 0001  ................
	0x0020:  5014 0000 fe1c 0000                      P.......
11:59:37.488430 IP localhost.35840 > localhost.qotd: Flags [.], ack 0, win 1024, length 0
	0x0000:  4500 0028 6864 0000 4006 0000 7f00 0001  E..(hd..@.......
	0x0010:  7f00 0001 8c00 0011 b500 0000 0000 0000  ................
	0x0020:  5010 0400 abdb 0000                      P.......
11:59:37.488441 IP localhost.34816 > localhost.qotd: Flags [R.], seq 16777216, ack 0, win 1024, length 0
	0x0000:  4500 0028 9cb6 0000 4006 0000 7f00 0001  E..(....@.......
	0x0010:  7f00 0001 8800 0011 0100 0000 0000 0000  ................
	0x0020:  5014 0400 abd7 0000                      P.......
11:59:37.488443 IP localhost.16 > localhost.40704: Flags [R], seq 0, win 0, length 0
	0x0000:  4500 0028 3aed 0000 4006 0000 7f00 0001  E..(:...@.......
	0x0010:  7f00 0001 0010 9f00 0000 0000 0000 0000  ................
	0x0020:  5004 0000 fe1c 0000                      P.......
11:59:37.488447 IP localhost.pictrography > localhost.qotd: Flags [FSR.], seq 3741319168, ack 0, win 1024, length 0
	0x0000:  4500 0028 9f69 0000 4006 0000 7f00 0001  E..(.i..@.......
	0x0010:  7f00 0001 0500 0011 df00 0000 0000 0000  ................
	0x0020:  5017 0400 abd4 0000                      P.......
11:59:37.488454 IP localhost.61952 > localhost.qotd: Flags [FSRP.UEW], seq 1224736768, ack 0, win 1024, urg 0, length 0
	0x0000:  4500 0028 40ea 0000 4006 0000 7f00 0001  E..(@...@.......
	0x0010:  7f00 0001 f200 0011 4900 0000 0000 0000  ........I.......
	0x0020:  50ff 0400 aaec 0000                      P.......
11:59:37.488462 IP localhost.33536 > localhost.30: Flags [none], win 1024, length 0
	0x0000:  4500 0028 ee85 0000 4006 0000 7f00 0001  E..(....@.......
	0x0010:  7f00 0001 8300 001e 5d00 0000 0000 0000  ........].......
	0x0020:  5000 0400 abeb 0000                      P.......
11:59:37.488464 IP localhost.30 > localhost.33536: Flags [R.], seq 0, ack 1, win 0, length 0
	0x0000:  4500 0028 6561 0000 4006 0000 7f00 0001  E..(ea..@.......
	0x0010:  7f00 0001 001e 8300 0000 0000 5d00 0000  ............]...
	0x0020:  5014 0000 fe1c 0000                      P.......
11:59:37.488468 IP localhost.18176 > localhost.msp: Flags [S], seq 4127195136, win 1024, options [mss 1460], length 0
	0x0000:  4500 002c 8f6d 0000 4006 0000 7f00 0001  E..,.m..@.......
	0x0010:  7f00 0001 4700 0012 f600 0000 0000 0000  ....G...........
	0x0020:  6002 0400 942d 0000 0204 05b4            `....-......
11:59:37.488476 IP localhost.39680 > localhost.msp: Flags [.], ack 0, win 1024, length 0
	0x0000:  4500 0028 af38 0000 4006 0000 7f00 0001  E..(.8..@.......
	0x0010:  7f00 0001 9b00 0012 6300 0000 0000 0000  ........c.......
	0x0020:  5010 0400 abdb 0000                      P.......
11:59:37.488483 IP localhost.qotd > localhost.35840: Flags [R], seq 0, win 0, length 0
	0x0000:  4500 0028 afdd 0000 4006 0000 7f00 0001  E..(....@.......
	0x0010:  7f00 0001 0011 8c00 0000 0000 0000 0000  ................
	0x0020:  5004 0000 fe1c 0000                      P.......
11:59:37.488484 IP localhost.62720 > localhost.msp: Flags [R.], seq 1224736768, ack 0, win 1024, length 0
	0x0000:  4500 0028 6c90 0000 4006 0000 7f00 0001  E..(l...@.......
	0x0010:  7f00 0001 f500 0012 4900 0000 0000 0000  ........I.......
	0x0020:  5014 0400 abd7 0000                      P.......
11:59:37.488492 IP localhost.58368 > localhost.msp: Flags [FSR.], seq 2332033024, ack 0, win 1024, length 0
	0x0000:  4500 0028 6adc 0000 4006 0000 7f00 0001  E..(j...@.......
	0x0010:  7f00 0001 e400 0012 8b00 0000 0000 0000  ................
	0x0020:  5017 0400 abd4 0000                      P.......
11:59:37.488500 IP localhost.30720 > localhost.msp: Flags [FSRP.UEW], seq 4043309056, ack 0, win 1024, urg 0, length 0
	0x0000:  4500 0028 d61d 0000 4006 0000 7f00 0001  E..(....@.......
	0x0010:  7f00 0001 7800 0012 f100 0000 0000 0000  ....x...........
	0x0020:  50ff 0400 aaec 0000                      P.......
11:59:37.488506 IP localhost.30 > localhost.33536: Flags [R.], seq 0, ack 1, win 0, length 0
	0x0000:  4500 0028 ef9a 0000 4006 0000 7f00 0001  E..(....@.......
	0x0010:  7f00 0001 001e 8300 0000 0000 5d00 0000  ............]...
	0x0020:  5014 0000 fe1c 0000                      P.......
11:59:37.488508 IP localhost.33536 > localhost.30: Flags [none], win 1024, length 0
	0x0000:  4500 0028 b63a 0000 4006 0000 7f00 0001  E..(.:..@.......
	0x0010:  7f00 0001 8300 001e 5d00 0000 0000 0000  ........].......
	0x0020:  5000 0400 abeb 0000                      P.......
11:59:37.488516 IP localhost.42752 > localhost.ftp: Flags [FSRP.UEW], seq 3489660928:3489660932, ack 0, win 1024, urg 0, length 4: FTP
	0x0000:  4500 002c 83fa 0000 4006 0000 7f00 0001  E..,....@.......
	0x0010:  7f00 0001 a700 0015 d000 0000 0000 0000  ................
	0x0020:  50ff 0400 aaec 0000 0000 0000            P...........
11:59:37.488519 IP localhost.msp > localhost.18176: Flags [R.], seq 0, ack 4127195137, win 0, length 0
	0x0000:  4500 0028 f28d 0000 4006 0000 7f00 0001  E..(....@.......
	0x0010:  7f00 0001 0012 4700 0000 0000 f600 0001  ......G.........
	0x0020:  5014 0000 fe1c 0000                      P.......
11:59:37.488522 IP localhost.59136 > localhost.chargen: Flags [.], ack 0, win 1024, length 0
	0x0000:  4500 0028 7f9f 0000 4006 0000 7f00 0001  E..(....@.......
	0x0010:  7f00 0001 e700 0013 8700 0000 0000 0000  ................
	0x0020:  5010 0400 abdb 0000                      P.......
11:59:37.488531 IP localhost.msp > localhost.39680: Flags [R], seq 0, win 0, length 0
	0x0000:  4500 0028 d201 0000 4006 0000 7f00 0001  E..(....@.......
	0x0010:  7f00 0001 0012 9b00 0000 0000 0000 0000  ................
	0x0020:  5004 0000 fe1c 0000                      P.......
11:59:37.488532 IP localhost.38912 > localhost.ftp-data: Flags [FSRP.UEW], seq 2130706432, ack 0, win 1024, urg 0, length 0
	0x0000:  4500 0028 af9c 0000 4006 0000 7f00 0001  E..(....@.......
	0x0010:  7f00 0001 9800 0014 7f00 0000 0000 0000  ................
	0x0020:  50ff 0400 aaec 0000                      P.......
11:59:37.488540 IP localhost.47104 > localhost.chargen: Flags [FSR.], seq 2466250752, ack 0, win 1024, length 0
	0x0000:  4500 0028 bf8d 0000 4006 0000 7f00 0001  E..(....@.......
	0x0010:  7f00 0001 b800 0013 9300 0000 0000 0000  ................
	0x0020:  5017 0400 abd4 0000                      P.......
11:59:37.488547 IP localhost.8448 > localhost.chargen: Flags [FSRP.UEW], seq 1660944384, ack 0, win 1024, urg 0, length 0
	0x0000:  4500 0028 8061 0000 4006 0000 7f00 0001  E..(.a..@.......
	0x0010:  7f00 0001 2100 0013 6300 0000 0000 0000  ....!...c.......
	0x0020:  50ff 0400 aaec 0000                      P.......
11:59:37.488554 IP localhost.30 > localhost.33536: Flags [R.], seq 0, ack 1, win 0, length 0
	0x0000:  4500 0028 17cd 0000 4006 0000 7f00 0001  E..(....@.......
	0x0010:  7f00 0001 001e 8300 0000 0000 5d00 0000  ............]...
	0x0020:  5014 0000 fe1c 0000                      P.......
11:59:37.488556 IP localhost.33536 > localhost.30: Flags [none], win 1024, length 0
	0x0000:  4500 0028 2e1e 0000 4006 0000 7f00 0001  E..(....@.......
	0x0010:  7f00 0001 8300 001e 5d00 0000 0000 0000  ........].......
	0x0020:  5000 0400 abeb 0000                      P.......
11:59:37.488562 IP localhost.51712 > localhost.ftp: Flags [R.], seq 3758096384:3758096388, ack 0, win 1024, length 4: FTP
	0x0000:  4500 002c 8b71 0000 4006 0000 7f00 0001  E..,.q..@.......
	0x0010:  7f00 0001 ca00 0015 e000 0000 0000 0000  ................
	0x0020:  5014 0400 abd7 0000 0000 0000            P...........
11:59:37.488570 IP localhost.chargen > localhost.59136: Flags [R], seq 0, win 0, length 0
	0x0000:  4500 0028 2059 0000 4006 0000 7f00 0001  E..(.Y..@.......
	0x0010:  7f00 0001 0013 e700 0000 0000 0000 0000  ................
	0x0020:  5004 0000 fe1c 0000                      P.......
11:59:37.488571 IP localhost.37376 > localhost.ftp-data: Flags [.], ack 0, win 1024, length 0
	0x0000:  4500 0028 fc86 0000 4006 0000 7f00 0001  E..(....@.......
	0x0010:  7f00 0001 9200 0014 2c00 0000 0000 0000  ........,.......
	0x0020:  5010 0400 abdb 0000                      P.......
11:59:37.488579 IP localhost.31488 > localhost.ftp-data: Flags [R.], seq 0, ack 1, win 1024, length 0
	0x0000:  4500 0028 c4bc 0000 4006 0000 7f00 0001  E..(....@.......
	0x0010:  7f00 0001 7b00 0014 b700 0000 0000 0000  ....{...........
	0x0020:  5014 0400 abd7 0000                      P.......
11:59:37.488585 IP localhost.19456 > localhost.ftp-data: Flags [FSR.], seq 905969664, ack 0, win 1024, length 0
	0x0000:  4500 0028 b1c7 0000 4006 0000 7f00 0001  E..(....@.......
	0x0010:  7f00 0001 4c00 0014 3600 0000 0000 0000  ....L...6.......
	0x0020:  5017 0400 abd4 0000                      P.......
11:59:37.488591 IP localhost.30 > localhost.33536: Flags [R.], seq 0, ack 1, win 0, length 0
	0x0000:  4500 0028 f389 0000 4006 0000 7f00 0001  E..(....@.......
	0x0010:  7f00 0001 001e 8300 0000 0000 5d00 0000  ............]...
	0x0020:  5014 0000 fe1c 0000                      P.......
11:59:37.488593 IP localhost.38912 > localhost.ftp-data: Flags [FSRP.UEW], seq 2130706432, ack 0, win 1024, urg 0, length 0
	0x0000:  4500 0028 8fd5 0000 4006 0000 7f00 0001  E..(....@.......
	0x0010:  7f00 0001 9800 0014 7f00 0000 0000 0000  ................
	0x0020:  50ff 0400 aaec 0000                      P.......
11:59:37.488604 IP localhost.33536 > localhost.30: Flags [none], win 1024, length 0
	0x0000:  4500 0028 523d 0000 4006 0000 7f00 0001  E..(R=..@.......
	0x0010:  7f00 0001 8300 001e 5d00 0000 0000 0000  ........].......
	0x0020:  5000 0400 abeb 0000                      P.......
11:59:37.488606 IP localhost.ftp-data > localhost.37376: Flags [R], seq 0, win 0, length 0
	0x0000:  4500 0028 56cd 0000 4006 0000 7f00 0001  E..(V...@.......
	0x0010:  7f00 0001 0014 9200 0000 0000 0000 0000  ................
	0x0020:  5004 0000 fe1c 0000                      P.......
11:59:37.488610 IP localhost.29952 > localhost.ftp: Flags [S], seq 134217728, win 1024, options [mss 1460], length 0
	0x0000:  4500 002c 1025 0000 4006 0000 7f00 0001  E..,.%..@.......
	0x0010:  7f00 0001 7500 0015 0800 0000 0000 0000  ....u...........
	0x0020:  6002 0400 942d 0000 0204 05b4            `....-......
11:59:37.488617 IP localhost.27392 > localhost.ftp: Flags [.], ack 0, win 1024, length 0
	0x0000:  4500 0028 8391 0000 4006 0000 7f00 0001  E..(....@.......
	0x0010:  7f00 0001 6b00 0015 0e00 0000 0000 0000  ....k...........
	0x0020:  5010 0400 abdb 0000                      P.......
11:59:37.488625 IP localhost.30 > localhost.33536: Flags [R.], seq 0, ack 1, win 0, length 0
	0x0000:  4500 0028 be84 0000 4006 0000 7f00 0001  E..(....@.......
	0x0010:  7f00 0001 001e 8300 0000 0000 5d00 0000  ............]...
	0x0020:  5014 0000 fe1c 0000                      P.......
11:59:37.488626 IP localhost.51712 > localhost.ftp: Flags [R.], seq 0, ack 1, win 1024, length 0
	0x0000:  4500 0028 19f4 0000 4006 0000 7f00 0001  E..(....@.......
	0x0010:  7f00 0001 ca00 0015 e000 0000 0000 0000  ................
	0x0020:  5014 0400 abd7 0000                      P.......
11:59:37.488633 IP localhost.11264 > localhost.ftp: Flags [FSR.], seq 4278190080, ack 0, win 1024, length 0
	0x0000:  4500 0028 fe8f 0000 4006 0000 7f00 0001  E..(....@.......
	0x0010:  7f00 0001 2c00 0015 ff00 0000 0000 0000  ....,...........
	0x0020:  5017 0400 abd4 0000                      P.......
11:59:37.488641 IP localhost.ftp > localhost.29952: Flags [R.], seq 0, ack 134217729, win 0, length 0
	0x0000:  4500 0028 d930 0000 4006 0000 7f00 0001  E..(.0..@.......
	0x0010:  7f00 0001 0015 7500 0000 0000 0800 0001  ......u.........
	0x0020:  5014 0000 fe1c 0000                      P.......
11:59:37.488643 IP localhost.42752 > localhost.ftp: Flags [FSRP.UEW], seq 3489660928, ack 0, win 1024, urg 0, length 0
	0x0000:  4500 0028 9ae2 0000 4006 0000 7f00 0001  E..(....@.......
	0x0010:  7f00 0001 a700 0015 d000 0000 0000 0000  ................
	0x0020:  50ff 0400 aaec 0000                      P.......
11:59:37.488651 IP localhost.33536 > localhost.30: Flags [none], win 1024, length 0
	0x0000:  4500 0028 e180 0000 4006 0000 7f00 0001  E..(....@.......
	0x0010:  7f00 0001 8300 001e 5d00 0000 0000 0000  ........].......
	0x0020:  5000 0400 abeb 0000                      P.......
11:59:37.488654 IP localhost.ftp > localhost.27392: Flags [R], seq 0, win 0, length 0
	0x0000:  4500 0028 d14d 0000 4006 0000 7f00 0001  E..(.M..@.......
	0x0010:  7f00 0001 0015 6b00 0000 0000 0000 0000  ......k.........
	0x0020:  5004 0000 fe1c 0000                      P.......
11:59:37.488658 IP localhost.13312 > localhost.ssh: Flags [S], seq 1291845632, win 1024, options [mss 1460], length 0
	0x0000:  4500 002c 6c60 0000 4006 0000 7f00 0001  E..,l`..@.......
	0x0010:  7f00 0001 3400 0016 4d00 0000 0000 0000  ....4...M.......
	0x0020:  6002 0400 942d 0000 0204 05b4            `....-......
11:59:37.488664 IP localhost.27136 > localhost.ssh: Flags [.], ack 0, win 1024, length 0
	0x0000:  4500 0028 4b64 0000 4006 0000 7f00 0001  E..(Kd..@.......
	0x0010:  7f00 0001 6a00 0016 0600 0000 0000 0000  ....j...........
	0x0020:  5010 0400 abdb 0000                      P.......
11:59:37.488672 IP localhost.30 > localhost.33536: Flags [R.], seq 0, ack 1, win 0, length 0
	0x0000:  4500 0028 bd16 0000 4006 0000 7f00 0001  E..(....@.......
	0x0010:  7f00 0001 001e 8300 0000 0000 5d00 0000  ............]...
	0x0020:  5014 0000 fe1c 0000                      P.......
11:59:37.488673 IP localhost.57088 > localhost.telnet: Flags [S] [bad hdr length 24 - too long, > 20]
	0x0000:  4500 0028 1c09 0000 4006 0000 7f00 0001  E..(....@.......
	0x0010:  7f00 0001 df00 0017 3100 0000 0000 0000  ........1.......
	0x0020:  6002 0400 942d 0000                      `....-..
11:59:37.488680 IP localhost.21504 > localhost.ssh: Flags [FSR.], seq 553648128, ack 0, win 1024, length 0
	0x0000:  4500 0028 02c2 0000 4006 0000 7f00 0001  E..(....@.......
	0x0010:  7f00 0001 5400 0016 2100 0000 0000 0000  ....T...!.......
	0x0020:  5017 0400 abd4 0000                      P.......
11:59:37.488688 IP localhost.ssh > localhost.13312: Flags [R.], seq 0, ack 1291845633, win 0, length 0
	0x0000:  4500 0028 1cc5 0000 4006 0000 7f00 0001  E..(....@.......
	0x0010:  7f00 0001 0016 3400 0000 0000 4d00 0001  ......4.....M...
	0x0020:  5014 0000 fe1c 0000                      P.......
11:59:37.488689 IP localhost.55552 > localhost.24: Flags [S] [bad hdr length 24 - too long, > 20]
	0x0000:  4500 0028 d865 0000 4006 0000 7f00 0001  E..(.e..@.......
	0x0010:  7f00 0001 d900 0018 5e00 0000 0000 0000  ........^.......
	0x0020:  6002 0400 942d 0000                      `....-..
11:59:37.488698 IP localhost.33536 > localhost.30: Flags [none], win 1024, length 0
	0x0000:  4500 0028 dfc2 0000 4006 0000 7f00 0001  E..(....@.......
	0x0010:  7f00 0001 8300 001e 5d00 0000 0000 0000  ........].......
	0x0020:  5000 0400 abeb 0000                      P.......
11:59:37.488700 IP localhost.ssh > localhost.27136: Flags [R], seq 0, win 0, length 0
	0x0000:  4500 0028 4ae1 0000 4006 0000 7f00 0001  E..(J...@.......
	0x0010:  7f00 0001 0016 6a00 0000 0000 0000 0000  ......j.........
	0x0020:  5004 0000 fe1c 0000                      P.......
11:59:37.488705 IP localhost.57088 > localhost.telnet: Flags [S], seq 822083584, win 1024, options [mss 1460], length 0
	0x0000:  4500 002c 10a4 0000 4006 0000 7f00 0001  E..,....@.......
	0x0010:  7f00 0001 df00 0017 3100 0000 0000 0000  ........1.......
	0x0020:  6002 0400 942d 0000 0204 05b4            `....-......
11:59:37.488712 IP localhost.16640 > localhost.telnet: Flags [.], ack 0, win 1024, length 0
	0x0000:  4500 0028 dc14 0000 4006 0000 7f00 0001  E..(....@.......
	0x0010:  7f00 0001 4100 0017 0200 0000 0000 0000  ....A...........
	0x0020:  5010 0400 abdb 0000                      P.......
11:59:37.488719 IP localhost.30 > localhost.33536: Flags [R.], seq 0, ack 1, win 0, length 0
	0x0000:  4500 0028 27f6 0000 4006 0000 7f00 0001  E..('...@.......
	0x0010:  7f00 0001 001e 8300 0000 0000 5d00 0000  ............]...
	0x0020:  5014 0000 fe1c 0000                      P.......
11:59:37.488720 IP localhost.27136 > localhost.26: Flags [S] [bad hdr length 24 - too long, > 20]
	0x0000:  4500 0028 38a8 0000 4006 0000 7f00 0001  E..(8...@.......
	0x0010:  7f00 0001 6a00 001a be00 0000 0000 0000  ....j...........
	0x0020:  6002 0400 942d 0000                      `....-..
11:59:37.488728 IP localhost.13568 > localhost.telnet: Flags [FSR.], seq 2483027968, ack 0, win 1024, length 0
	0x0000:  4500 0028 47a3 0000 4006 0000 7f00 0001  E..(G...@.......
	0x0010:  7f00 0001 3500 0017 9400 0000 0000 0000  ....5...........
	0x0020:  5017 0400 abd4 0000                      P.......
11:59:37.488736 IP localhost.telnet > localhost.57088: Flags [R.], seq 0, ack 822083585, win 0, length 0
	0x0000:  4500 0028 ee46 0000 4006 0000 7f00 0001  E..(.F..@.......
	0x0010:  7f00 0001 0017 df00 0000 0000 3100 0001  ............1...
	0x0020:  5014 0000 fe1c 0000                      P.......
11:59:37.488737 IP localhost.12032 > localhost.msg-icp: Flags [S] [bad hdr length 24 - too long, > 20]
	0x0000:  4500 0028 cc0e 0000 4006 0000 7f00 0001  E..(....@.......
	0x0010:  7f00 0001 2f00 001d 3800 0000 0000 0000  ..../...8.......
	0x0020:  6002 0400 942d 0000                      `....-..
11:59:37.488746 IP localhost.33536 > localhost.30: Flags [none], win 1024, length 0
	0x0000:  4500 0028 9f2f 0000 4006 0000 7f00 0001  E..(./..@.......
	0x0010:  7f00 0001 8300 001e 5d00 0000 0000 0000  ........].......
	0x0020:  5000 0400 abeb 0000                      P.......
11:59:37.488749 IP localhost.telnet > localhost.16640: Flags [R], seq 0, win 0, length 0
	0x0000:  4500 0028 ca64 0000 4006 0000 7f00 0001  E..(.d..@.......
	0x0010:  7f00 0001 0017 4100 0000 0000 0000 0000  ......A.........
	0x0020:  5004 0000 fe1c 0000                      P.......
11:59:37.488753 IP localhost.55552 > localhost.24: Flags [S], seq 1577058304, win 1024, options [mss 1460], length 0
	0x0000:  4500 002c 11e7 0000 4006 0000 7f00 0001  E..,....@.......
	0x0010:  7f00 0001 d900 0018 5e00 0000 0000 0000  ........^.......
	0x0020:  6002 0400 942d 0000 0204 05b4            `....-......
11:59:37.488760 IP localhost.42240 > localhost.24: Flags [.], ack 0, win 1024, length 0
	0x0000:  4500 0028 e315 0000 4006 0000 7f00 0001  E..(....@.......
	0x0010:  7f00 0001 a500 0018 0f00 0000 0000 0000  ................
	0x0020:  5010 0400 abdb 0000                      P.......
11:59:37.488767 IP localhost.30 > localhost.33536: Flags [R.], seq 0, ack 1, win 0, length 0
	0x0000:  4500 0028 47b7 0000 4006 0000 7f00 0001  E..(G...@.......
	0x0010:  7f00 0001 001e 8300 0000 0000 5d00 0000  ............]...
	0x0020:  5014 0000 fe1c 0000                      P.......
11:59:37.488768 IP localhost.12032 > localhost.msg-icp: Flags [S] [bad hdr length 24 - too long, > 20]
	0x0000:  4500 0028 1c0a 0000 4006 0000 7f00 0001  E..(....@.......
	0x0010:  7f00 0001 2f00 001d 3800 0000 0000 0000  ..../...8.......
	0x0020:  6002 0400 942d 0000                      `....-..
11:59:37.488776 IP localhost.36864 > localhost.24: Flags [FSR.], seq 620756992, ack 0, win 1024, length 0
	0x0000:  4500 0028 4109 0000 4006 0000 7f00 0001  E..(A...@.......
	0x0010:  7f00 0001 9000 0018 2500 0000 0000 0000  ........%.......
	0x0020:  5017 0400 abd4 0000                      P.......
11:59:37.488784 IP localhost.24 > localhost.55552: Flags [R.], seq 0, ack 1577058305, win 0, length 0
	0x0000:  4500 0028 1734 0000 4006 0000 7f00 0001  E..(.4..@.......
	0x0010:  7f00 0001 0018 d900 0000 0000 5e00 0001  ............^...
	0x0020:  5014 0000 fe1c 0000                      P.......
11:59:37.488785 IP localhost.31232 > localhost.24: Flags [FSRP.UEW], seq 167772160, ack 0, win 1024, urg 0, length 0
	0x0000:  4500 0028 f343 0000 4006 0000 7f00 0001  E..(.C..@.......
	0x0010:  7f00 0001 7a00 0018 0a00 0000 0000 0000  ....z...........
	0x0020:  50ff 0400 aaec 0000                      P.......
11:59:37.488794 IP localhost.33536 > localhost.30: Flags [none], win 1024, length 0
	0x0000:  4500 0028 beb5 0000 4006 0000 7f00 0001  E..(....@.......
	0x0010:  7f00 0001 8300 001e 5d00 0000 0000 0000  ........].......
	0x0020:  5000 0400 abeb 0000                      P.......
11:59:37.488796 IP localhost.24 > localhost.42240: Flags [R], seq 0, win 0, length 0
	0x0000:  4500 0028 26b1 0000 4006 0000 7f00 0001  E..(&...@.......
	0x0010:  7f00 0001 0018 a500 0000 0000 0000 0000  ................
	0x0020:  5004 0000 fe1c 0000                      P.......
11:59:37.488800 IP localhost.exec > localhost.smtp: Flags [S], seq 2248146944, win 1024, options [mss 1460], length 0
	0x0000:  4500 002c c936 0000 4006 0000 7f00 0001  E..,.6..@.......
	0x0010:  7f00 0001 0200 0019 8600 0000 0000 0000  ................
	0x0020:  6002 0400 942d 0000 0204 05b4            `....-......
11:59:37.488807 IP localhost.62208 > localhost.smtp: Flags [.], ack 0, win 1024, length 0
	0x0000:  4500 0028 8a66 0000 4006 0000 7f00 0001  E..(.f..@.......
	0x0010:  7f00 0001 f300 0019 5500 0000 0000 0000  ........U.......
	0x0020:  5010 0400 abdb 0000                      P.......
11:59:37.488814 IP localhost.30 > localhost.33536: Flags [R.], seq 0, ack 1, win 0, length 0
	0x0000:  4500 0028 2464 0000 4006 0000 7f00 0001  E..($d..@.......
	0x0010:  7f00 0001 001e 8300 0000 0000 5d00 0000  ............]...
	0x0020:  5014 0000 fe1c 0000                      P.......
11:59:37.488816 IP localhost.47104 > localhost.smtp: Flags [R.], seq 1593835520, ack 0, win 1024, length 0
	0x0000:  4500 0028 6925 0000 4006 0000 7f00 0001  E..(i%..@.......
	0x0010:  7f00 0001 b800 0019 5f00 0000 0000 0000  ........_.......
	0x0020:  5014 0400 abd7 0000                      P.......
11:59:37.488823 IP localhost.52992 > localhost.smtp: Flags [FSR.], seq 16777216, ack 0, win 1024, length 0
	0x0000:  4500 0028 7a0b 0000 4006 0000 7f00 0001  E..(z...@.......
	0x0010:  7f00 0001 cf00 0019 0100 0000 0000 0000  ................
	0x0020:  5017 0400 abd4 0000                      P.......
11:59:37.488831 IP localhost.smtp > localhost.exec: Flags [R.], seq 0, ack 2248146945, win 0, length 0
	0x0000:  4500 0028 9875 0000 4006 0000 7f00 0001  E..(.u..@.......
	0x0010:  7f00 0001 0019 0200 0000 0000 8600 0001  ................
	0x0020:  5014 0000 fe1c 0000                      P.......
11:59:37.488832 IP localhost.4864 > localhost.smtp: Flags [FSRP.UEW], seq 1677721600, ack 0, win 1024, urg 0, length 0
	0x0000:  4500 0028 4c7b 0000 4006 0000 7f00 0001  E..(L{..@.......
	0x0010:  7f00 0001 1300 0019 6400 0000 0000 0000  ........d.......
	0x0020:  50ff 0400 aaec 0000                      P.......
11:59:37.488841 IP localhost.33536 > localhost.30: Flags [none], win 1024, length 0
	0x0000:  4500 0028 e769 0000 4006 0000 7f00 0001  E..(.i..@.......
	0x0010:  7f00 0001 8300 001e 5d00 0000 0000 0000  ........].......
	0x0020:  5000 0400 abeb 0000                      P.......
11:59:37.488844 IP localhost.smtp > localhost.62208: Flags [R], seq 0, win 0, length 0
	0x0000:  4500 0028 aaf3 0000 4006 0000 7f00 0001  E..(....@.......
	0x0010:  7f00 0001 0019 f300 0000 0000 0000 0000  ................
	0x0020:  5004 0000 fe1c 0000                      P.......
11:59:37.488847 IP localhost.27136 > localhost.26: Flags [S], seq 3187671040, win 1024, options [mss 1460], length 0
	0x0000:  4500 002c 5a43 0000 4006 0000 7f00 0001  E..,ZC..@.......
	0x0010:  7f00 0001 6a00 001a be00 0000 0000 0000  ....j...........
	0x0020:  6002 0400 942d 0000 0204 05b4            `....-......
11:59:37.488854 IP localhost.58624 > localhost.26: Flags [.], ack 0, win 1024, length 0
	0x0000:  4500 0028 c046 0000 4006 0000 7f00 0001  E..(.F..@.......
	0x0010:  7f00 0001 e500 001a a100 0000 0000 0000  ................
	0x0020:  5010 0400 abdb 0000                      P.......
11:59:37.488861 IP localhost.30 > localhost.33536: Flags [R.], seq 0, ack 1, win 0, length 0
	0x0000:  4500 0028 f32d 0000 4006 0000 7f00 0001  E..(.-..@.......
	0x0010:  7f00 0001 001e 8300 0000 0000 5d00 0000  ............]...
	0x0020:  5014 0000 fe1c 0000                      P.......
11:59:37.488863 IP localhost.49920 > localhost.26: Flags [R.], seq 335544320, ack 0, win 1024, length 0
	0x0000:  4500 0028 9c39 0000 4006 0000 7f00 0001  E..(.9..@.......
	0x0010:  7f00 0001 c300 001a 1400 0000 0000 0000  ................
	0x0020:  5014 0400 abd7 0000                      P.......
11:59:37.488869 IP localhost.59904 > localhost.26: Flags [FSR.], seq 1174405120, ack 0, win 1024, length 0
	0x0000:  4500 0028 06a9 0000 4006 0000 7f00 0001  E..(....@.......
	0x0010:  7f00 0001 ea00 001a 4600 0000 0000 0000  ........F.......
	0x0020:  5017 0400 abd4 0000                      P.......
11:59:37.488878 IP localhost.26 > localhost.27136: Flags [R.], seq 0, ack 3187671041, win 0, length 0
	0x0000:  4500 0028 8ba5 0000 4006 0000 7f00 0001  E..(....@.......
	0x0010:  7f00 0001 001a 6a00 0000 0000 be00 0001  ......j.........
	0x0020:  5014 0000 fe1c 0000                      P.......
11:59:37.488879 IP localhost.26880 > localhost.msg-icp: Flags [R.], seq 4060086272, ack 0, win 1024, length 0
	0x0000:  4500 0028 28c6 0000 4006 0000 7f00 0001  E..((...@.......
	0x0010:  7f00 0001 6900 001d f200 0000 0000 0000  ....i...........
	0x0020:  5014 0400 abd7 0000                      P.......
11:59:37.488888 IP localhost.33536 > localhost.30: Flags [none], win 1024, length 0
	0x0000:  4500 0028 e87e 0000 4006 0000 7f00 0001  E..(.~..@.......
	0x0010:  7f00 0001 8300 001e 5d00 0000 0000 0000  ........].......
	0x0020:  5000 0400 abeb 0000                      P.......
11:59:37.488890 IP localhost.26 > localhost.58624: Flags [R], seq 0, win 0, length 0
	0x0000:  4500 0028 36af 0000 4006 0000 7f00 0001  E..(6...@.......
	0x0010:  7f00 0001 001a e500 0000 0000 0000 0000  ................
	0x0020:  5004 0000 fe1c 0000                      P.......
11:59:37.488895 IP localhost.27904 > localhost.nsw-fe: Flags [S], seq 3959422976, win 1024, options [mss 1460], length 0
	0x0000:  4500 002c 43c3 0000 4006 0000 7f00 0001  E..,C...@.......
	0x0010:  7f00 0001 6d00 001b ec00 0000 0000 0000  ....m...........
	0x0020:  6002 0400 942d 0000 0204 05b4            `....-......
11:59:37.488904 IP localhost.37632 > localhost.nsw-fe: Flags [.], ack 0, win 1024, length 0
	0x0000:  4500 0028 412f 0000 4006 0000 7f00 0001  E..(A/..@.......
	0x0010:  7f00 0001 9300 001b e000 0000 0000 0000  ................
	0x0020:  5010 0400 abdb 0000                      P.......
11:59:37.488910 IP localhost.30 > localhost.33536: Flags [R.], seq 0, ack 1, win 0, length 0
	0x0000:  4500 0028 ee5e 0000 4006 0000 7f00 0001  E..(.^..@.......
	0x0010:  7f00 0001 001e 8300 0000 0000 5d00 0000  ............]...
	0x0020:  5014 0000 fe1c 0000                      P.......
11:59:37.488912 IP localhost.56832 > localhost.nsw-fe: Flags [R.], seq 1761607680, ack 0, win 1024, length 0
	0x0000:  4500 0028 b488 0000 4006 0000 7f00 0001  E..(....@.......
	0x0010:  7f00 0001 de00 001b 6900 0000 0000 0000  ........i.......
	0x0020:  5014 0400 abd7 0000                      P.......
11:59:37.488920 IP localhost.64512 > localhost.nsw-fe: Flags [FSR.], seq 3154116608, ack 0, win 1024, length 0
	0x0000:  4500 0028 f04f 0000 4006 0000 7f00 0001  E..(.O..@.......
	0x0010:  7f00 0001 fc00 001b bc00 0000 0000 0000  ................
	0x0020:  5017 0400 abd4 0000                      P.......
11:59:37.488926 IP localhost.nsw-fe > localhost.27904: Flags [R.], seq 0, ack 3959422977, win 0, length 0
	0x0000:  4500 0028 42c5 0000 4006 0000 7f00 0001  E..(B...@.......
	0x0010:  7f00 0001 001b 6d00 0000 0000 ec00 0001  ......m.........
	0x0020:  5014 0000 fe1c 0000                      P.......
11:59:37.488928 IP localhost.47360 > localhost.nsw-fe: Flags [FSRP.UEW], seq 67108864, ack 0, win 1024, urg 0, length 0
	0x0000:  4500 0028 f1f1 0000 4006 0000 7f00 0001  E..(....@.......
	0x0010:  7f00 0001 b900 001b 0400 0000 0000 0000  ................
	0x0020:  50ff 0400 aaec 0000                      P.......
11:59:37.488936 IP localhost.33536 > localhost.30: Flags [none], win 1024, length 0
	0x0000:  4500 0028 84f8 0000 4006 0000 7f00 0001  E..(....@.......
	0x0010:  7f00 0001 8300 001e 5d00 0000 0000 0000  ........].......
	0x0020:  5000 0400 abeb 0000                      P.......
11:59:37.488939 IP localhost.nsw-fe > localhost.37632: Flags [R], seq 0, win 0, length 0
	0x0000:  4500 0028 fb23 0000 4006 0000 7f00 0001  E..(.#..@.......
	0x0010:  7f00 0001 001b 9300 0000 0000 0000 0000  ................
	0x0020:  5004 0000 fe1c 0000                      P.......
11:59:37.488943 IP localhost.21760 > localhost.28: Flags [S], seq 2281701376, win 1024, options [mss 1460], length 0
	0x0000:  4500 002c 7169 0000 4006 0000 7f00 0001  E..,qi..@.......
	0x0010:  7f00 0001 5500 001c 8800 0000 0000 0000  ....U...........
	0x0020:  6002 0400 942d 0000 0204 05b4            `....-......
11:59:37.488949 IP localhost.23808 > localhost.28: Flags [.], ack 0, win 1024, length 0
	0x0000:  4500 0028 0899 0000 4006 0000 7f00 0001  E..(....@.......
	0x0010:  7f00 0001 5d00 001c 6d00 0000 0000 0000  ....]...m.......
	0x0020:  5010 0400 abdb 0000                      P.......
11:59:37.488957 IP localhost.30 > localhost.33536: Flags [R.], seq 0, ack 1, win 0, length 0
	0x0000:  4500 0028 ef55 0000 4006 0000 7f00 0001  E..(.U..@.......
	0x0010:  7f00 0001 001e 8300 0000 0000 5d00 0000  ............]...
	0x0020:  5014 0000 fe1c 0000                      P.......
11:59:37.488958 IP localhost.28672 > localhost.28: Flags [R.], seq 1660944384, ack 0, win 1024, length 0
	0x0000:  4500 0028 7707 0000 4006 0000 7f00 0001  E..(w...@.......
	0x0010:  7f00 0001 7000 001c 6300 0000 0000 0000  ....p...c.......
	0x0020:  5014 0400 abd7 0000                      P.......
11:59:37.488965 IP localhost.8960 > localhost.28: Flags [FSR.], seq 3305111552, ack 0, win 1024, length 0
	0x0000:  4500 0028 7092 0000 4006 0000 7f00 0001  E..(p...@.......
	0x0010:  7f00 0001 2300 001c c500 0000 0000 0000  ....#...........
	0x0020:  5017 0400 abd4 0000                      P.......
11:59:37.488973 IP localhost.28 > localhost.21760: Flags [R.], seq 0, ack 2281701377, win 0, length 0
	0x0000:  4500 0028 b5f6 0000 4006 0000 7f00 0001  E..(....@.......
	0x0010:  7f00 0001 001c 5500 0000 0000 8800 0001  ......U.........
	0x0020:  5014 0000 fe1c 0000                      P.......
11:59:37.488974 IP localhost.24064 > localhost.28: Flags [FSRP.UEW], seq 2583691264, ack 0, win 1024, urg 0, length 0
	0x0000:  4500 0028 71fc 0000 4006 0000 7f00 0001  E..(q...@.......
	0x0010:  7f00 0001 5e00 001c 9a00 0000 0000 0000  ....^...........
	0x0020:  50ff 0400 aaec 0000                      P.......
11:59:37.488983 IP localhost.33536 > localhost.30: Flags [none], win 1024, length 0
	0x0000:  4500 0028 43ec 0000 4006 0000 7f00 0001  E..(C...@.......
	0x0010:  7f00 0001 8300 001e 5d00 0000 0000 0000  ........].......
	0x0020:  5000 0400 abeb 0000                      P.......
11:59:37.488986 IP localhost.28 > localhost.23808: Flags [R], seq 0, win 0, length 0
	0x0000:  4500 0028 0dd3 0000 4006 0000 7f00 0001  E..(....@.......
	0x0010:  7f00 0001 001c 5d00 0000 0000 0000 0000  ......].........
	0x0020:  5004 0000 fe1c 0000                      P.......
11:59:37.488989 IP localhost.12032 > localhost.msg-icp: Flags [S], seq 939524096, win 1024, options [mss 1460], length 0
	0x0000:  4500 002c e4dd 0000 4006 0000 7f00 0001  E..,....@.......
	0x0010:  7f00 0001 2f00 001d 3800 0000 0000 0000  ..../...8.......
	0x0020:  6002 0400 942d 0000 0204 05b4            `....-......
11:59:37.488996 IP localhost.43008 > localhost.msg-icp: Flags [.], ack 0, win 1024, length 0
	0x0000:  4500 0028 47f8 0000 4006 0000 7f00 0001  E..(G...@.......
	0x0010:  7f00 0001 a800 001d 8d00 0000 0000 0000  ................
	0x0020:  5010 0400 abdb 0000                      P.......
11:59:37.489004 IP localhost.26880 > localhost.msg-icp: Flags [R.], seq 0, ack 1, win 1024, length 0
	0x0000:  4500 0028 0c85 0000 4006 0000 7f00 0001  E..(....@.......
	0x0010:  7f00 0001 6900 001d f200 0000 0000 0000  ....i...........
	0x0020:  5014 0400 abd7 0000                      P.......
11:59:37.489006 IP localhost.30 > localhost.33536: Flags [R.], seq 0, ack 1, win 0, length 0
	0x0000:  4500 0028 77bb 0000 4006 0000 7f00 0001  E..(w...@.......
	0x0010:  7f00 0001 001e 8300 0000 0000 5d00 0000  ............]...
	0x0020:  5014 0000 fe1c 0000                      P.......
11:59:37.489011 IP localhost.50688 > localhost.msg-icp: Flags [FSR.], seq 1828716544, ack 0, win 1024, length 0
	0x0000:  4500 0028 c733 0000 4006 0000 7f00 0001  E..(.3..@.......
	0x0010:  7f00 0001 c600 001d 6d00 0000 0000 0000  ........m.......
	0x0020:  5017 0400 abd4 0000                      P.......
11:59:37.489018 IP localhost.msg-icp > localhost.12032: Flags [R.], seq 0, ack 939524097, win 0, length 0
	0x0000:  4500 0028 dd5c 0000 4006 0000 7f00 0001  E..(.\..@.......
	0x0010:  7f00 0001 001d 2f00 0000 0000 3800 0001  ....../.....8...
	0x0020:  5014 0000 fe1c 0000                      P.......
11:59:37.489019 IP localhost.29696 > localhost.msg-icp: Flags [FSRP.UEW], seq 419430400, ack 0, win 1024, urg 0, length 0
	0x0000:  4500 0028 3c30 0000 4006 0000 7f00 0001  E..(<0..@.......
	0x0010:  7f00 0001 7400 001d 1900 0000 0000 0000  ....t...........
	0x0020:  50ff 0400 aaec 0000                      P.......
11:59:37.489026 IP localhost.33536 > localhost.30: Flags [none], win 1024, length 0
	0x0000:  4500 0028 588d 0000 4006 0000 7f00 0001  E..(X...@.......
	0x0010:  7f00 0001 8300 001e 5d00 0000 0000 0000  ........].......
	0x0020:  5000 0400 abeb 0000                      P.......
11:59:37.489034 IP localhost.msg-icp > localhost.43008: Flags [R], seq 0, win 0, length 0
	0x0000:  4500 0028 b4f8 0000 4006 0000 7f00 0001  E..(....@.......
	0x0010:  7f00 0001 001d a800 0000 0000 0000 0000  ................
	0x0020:  5004 0000 fe1c 0000                      P.......
11:59:37.489035 IP localhost.54272 > localhost.30: Flags [S], seq 587202560, win 1024, options [mss 1460], length 0
	0x0000:  4500 002c e4a1 0000 4006 0000 7f00 0001  E..,....@.......
	0x0010:  7f00 0001 d400 001e 2300 0000 0000 0000  ........#.......
	0x0020:  6002 0400 942d 0000 0204 05b4            `....-......
11:59:37.489042 IP localhost.23808 > localhost.30: Flags [.], ack 0, win 1024, length 0
	0x0000:  4500 0028 585b 0000 4006 0000 7f00 0001  E..(X[..@.......
	0x0010:  7f00 0001 5d00 001e 5300 0000 0000 0000  ....]...S.......
	0x0020:  5010 0400 abdb 0000                      P.......
11:59:37.489050 IP localhost.27904 > localhost.30: Flags [R.], seq 335544320, ack 0, win 1024, length 0
	0x0000:  4500 0028 35be 0000 4006 0000 7f00 0001  E..(5...@.......
	0x0010:  7f00 0001 6d00 001e 1400 0000 0000 0000  ....m...........
	0x0020:  5014 0400 abd7 0000                      P.......
11:59:37.489052 IP localhost.30 > localhost.33536: Flags [R.], seq 0, ack 1, win 0, length 0
	0x0000:  4500 0028 fd7b 0000 4006 0000 7f00 0001  E..(.{..@.......
	0x0010:  7f00 0001 001e 8300 0000 0000 5d00 0000  ............]...
	0x0020:  5014 0000 fe1c 0000                      P.......
11:59:37.489056 IP localhost.5376 > localhost.30: Flags [FSR.], seq 1979711488, ack 0, win 1024, length 0
	0x0000:  4500 0028 0291 0000 4006 0000 7f00 0001  E..(....@.......
	0x0010:  7f00 0001 1500 001e 7600 0000 0000 0000  ........v.......
	0x0020:  5017 0400 abd4 0000                      P.......
11:59:37.489064 IP localhost.30 > localhost.54272: Flags [R.], seq 0, ack 587202561, win 0, length 0
	0x0000:  4500 0028 c10b 0000 4006 0000 7f00 0001  E..(....@.......
	0x0010:  7f00 0001 001e d400 0000 0000 2300 0001  ............#...
	0x0020:  5014 0000 fe1c 0000                      P.......
11:59:37.489066 IP localhost.63232 > localhost.30: Flags [FSRP.UEW], seq 4110417920, ack 0, win 1024, urg 0, length 0
	0x0000:  4500 0028 f13f 0000 4006 0000 7f00 0001  E..(.?..@.......
	0x0010:  7f00 0001 f700 001e f500 0000 0000 0000  ................
	0x0020:  50ff 0400 aaec 0000                      P.......
11:59:37.489080 IP localhost.30 > localhost.23808: Flags [R], seq 0, win 0, length 0
	0x0000:  4500 0028 c9cf 0000 4006 0000 7f00 0001  E..(....@.......
	0x0010:  7f00 0001 001e 5d00 0000 0000 0000 0000  ......].........
	0x0020:  5004 0000 fe1c 0000                      P.......

